:020000040800F2
:1000000098080020790C0008D50C0008D50C0008D1
:10001000D50C0008D50C0008D50C00080000000025
:10002000000000000000000000000000D50C0008E7
:10003000D50C000800000000D50C0008FD100008D9
:10004000D50C0008D50C0008D50C0008D50C00080C
:10005000D50C0008D50C0008D50C0008D50C0008FC
:10006000D50C0008D50C0008D50C0008D50C0008EC
:10007000D50C0008D50C0008D50C0008D50C0008DC
:10008000D50C0008D50C0008D50C0008D50C0008CC
:10009000D50C0008D50C0008D50C0008D50C0008BC
:1000A000D50C0008D50C0008D50C0008D50C0008AC
:1000B000D50C000831160008D50C0008D50C000836
:1000C000D50C0008D50C0008D50C0008D50C00088C
:1000D000D50C0008D50C0008D50C000861060008F6
:1000E000D50C0008D50C0008D50C0008D50C00086C
:1000F000D50C0008D50C0008D50C0008D50C00085C
:10010000D50C0008D50C0008D50C0008D50C00084B
:10011000D50C0008D50C0008D50C0008D50C00083B
:10012000D50C0008D50C0008D50C0008D50C00082B
:10013000D50C0008D50C0008D50C0008D50C00081B
:10014000D50C0008D50C0008D50C0008D50C00080B
:10015000D50C0008D50C0008D50C0008D50C0008FB
:10016000D50C0008D50C0008D50C0008D50C0008EB
:10017000D50C0008D50C0008D50C0008D50C0008DB
:10018000D50C0008D50C000880B483B000AF03463E
:10019000FB71084997F907305B09FA7902F01F02F1
:1001A000012000FA02F241F8232000BF0C37BD46BF
:1001B00080BC704700E100E080B485B000AF78609B
:1001C000114B1B68BB60EFF30583FB60FB68002BE2
:1001D00011D100BF0C4B1A68BB68D21A7B689A42D7
:1001E000F8D30BE0094B1B6803F48033002B02D0DB
:1001F0007B68013B7B607B68002BF3D100BF143729
:10020000BD4680BC704700BF4000002010E000E009
:100210002DE9F04182B000AF68468046012000B26F
:1002200001387860012000B205464FF00006F20068
:1002300042EA5572E900012212B211464FF0000263
:10024000D40044EA5174CB0001231BB20733DB080E
:10025000DB00ADEB030D6B4600333B602A4B002205
:100260001A802A4B00221A80294B00221A80264B22
:1002700000221A802DE0254B1B889BB201339AB2D5
:10028000224B1A8014E0204B1B889BB21C4621484D
:1002900000F024FC0346DAB23B681A551A4B1B885F
:1002A0009BB201339AB2184B1A80184B00221A8065
:1002B0002021184800F06AFC0346012BE3D0134BC1
:1002C0001B889BB2B3F57A7F03D90F4B00221A80AB
:1002D00007E00D4B1B889BB21A4601231BB29A42C2
:1002E000C9DB094B1B889BB21A4601231BB29A42F9
:1002F00003D13B68184600F00FF8C54600BF083729
:10030000BD46BDE8F08100BF320000203000002073
:10031000340000200048004080B582B000AF786013
:100320007B681B78732B1FD18D4B1B889AB28D4B2A
:100330001A808D4B1B889AB28C4B1A804FF4007137
:100340008B4801F017F88021894801F013F84FF429
:10035000FA70FFF731FF8021864800F0FDFF4FF46F
:100360000071844801F006F87B681B78712B23D15B
:100370007C4B1B889BB21A467F4B1B889BB2323347
:100380009A4206DB774B1B889BB2323B9AB2754B85
:100390001A80764B1B889BB21A46784B1B889BB2FF
:1003A000A3F5FA739A4207DC704B1B889BB203F5E6
:1003B000FA739AB26D4B1A807B681B78772B12D137
:1003C0006A4B1B889BB21A466C4B1B889BB2A3F5E9
:1003D0007A739A4207DC654B1B889BB203F57A73EC
:1003E0009AB2624B1A807B681B78652B23D15D4BD8
:1003F0001B889BB21A46624B1B889BB2323B9A42C7
:1004000006DC584B1B889BB232339AB2554B1A808C
:10041000564B1B889BB21A46584B1B889BB2A3F5C0
:10042000FA739A4207DC514B1B889BB203F5FA73AF
:100430009AB24E4B1A807B681B78612B10D1494BC6
:100440001B889BB21A464C4B1B889BB264339A4262
:1004500006DB444B1B889BB2643B9AB2414B1A802B
:100460007B681B78642B10D13E4B1B889BB21A46CD
:10047000434B1B889BB2643B9A4206DC394B1B887A
:100480009BB264339AB2374B1A807B681B787A2B05
:1004900023D1344B1B889BB21A46374B1B889BB227
:1004A00032339A4206DB2F4B1B889BB2323B9AB207
:1004B0002C4B1A802D4B1B889BB21A462A4B1B884B
:1004C0009BB203F5FA739A4207DB284B1B889BB259
:1004D000A3F5FA739AB2254B1A807B681B78782BA8
:1004E00012D1224B1B889BB21A461F4B1B889BB212
:1004F00003F57A739A4207DB1C4B1B889BB2A3F56A
:100500007A739AB2194B1A807B681B78632B23D1BC
:10051000144B1B889BB21A46194B1B889BB2323B6B
:100520009A4206DC0F4B1B889BB232339AB20D4BBA
:100530001A800E4B1B889BB21A460B4B1B889BB232
:1005400003F5FA739A4207DB084B1B889BB2A3F5AD
:10055000FA739AB2054B1A8000BF0837BD4680BDBA
:100560000600002002000020380000203600002095
:100570000010024000000240080000200A00002095
:100580000400002080B500AF174B1B889AB2174BB0
:100590001B889BB29A420CD8134B1B889AB2144BFF
:1005A0001B889BB29A4204D3124B0F4A128892B214
:1005B0005A63114B1B889AB2104B1B889BB29A420C
:1005C0000CD80D4B1B889AB20D4B1B889BB29A42DC
:1005D00004D3084B084A128892B2DA636420FFF70A
:1005E000EBFD00BF80BD00BF360000200A000020E8
:1005F0003800002000080040020000200400002015
:100600000800002080B582B000AF0346FB7100BF38
:100610008021084800F0BAFA0346002BF8D0FB7995
:100620009BB21946034800F047FA00BF0837BD46A1
:1006300080BD00BF0048004080B582B000AF786048
:1006400006E07B685A1C7A601B781846FFF7DAFFD1
:100650007B681B78002BF4D100BF0837BD4680BDF6
:1006600080B500AF40F225510A4800F0ABFA0346CE
:10067000002B0CD0FFF7CCFD0748FFF7DDFF00BFD4
:100680004021044800F082FA0346002BF8D000BF56
:1006900080BD00BF004800406423000880B58AB0D8
:1006A00000AF0121082000F0DBFB4FF470433B62F8
:1006B000012387F82430002387F82630032387F8A6
:1006C0002530002387F8273007F1200319463148E9
:1006D00000F0B4FD01214FF4802000F0DFFB012188
:1006E000042000F0BDFB07220A212B4800F050FE39
:1006F0000023BB770123FB7702233B774FF4806312
:10070000BB6102237B7707F118031946224800F0EA
:1007100095FD07220B21204800F03AFE02233B778B
:100720004FF40063BB6107F1180319461A4800F043
:1007300085FD4FF41653BB600023BB810023FB8172
:1007400000233B820023BB820C237B8207F108033A
:100750001946124800F0D4F80121104800F08CF935
:10076000012240F225510D4800F0C8F927233B71C2
:1007700000237B710023BB710123FB713B1D1846D5
:1007800000F0C6FF2720FFF7FFFC00BF2837BD465B
:1007900080BD00BF000C024000080240004800403D
:1007A00080B582B000AF4FF420733B600023BB7173
:1007B00003237B710023FB7101233B713B461946E8
:1007C0000B4800F03BFD4FF4A0733B600023BB716E
:1007D00003237B710023FB7101233B713B461946C8
:1007E000044800F02BFD00BF0837BD4680BD00BFA8
:1007F000000002400004024080B584B000AF012137
:10080000042000F04BFB4EF66023BB605323BB80FB
:100810000023BB810023FB803B1D1946054801F0E6
:10082000ABF80121034801F011F900BF1037BD46B4
:1008300080BD00BF0008004080B588B000AF6023D5
:10084000BB810123FB8100237B6100233B8307F1F4
:100850000C0319461D4801F019F908211B4801F045
:1008600015FA022206211A4800F092FD40237B600F
:1008700002233B723B1D1946154800F0DFFC07F1CF
:100880000C031946114801F07BF908210F4801F0CB
:1008900019FA022208210E4800F07AFD4FF4807305
:1008A0007B6002233B723B1D1946094800F0C6FCE1
:1008B0004021074800F050FD4FF48071044800F0DB
:1008C0004BFD00BF2037BD4680BD00BF0008004083
:1008D0000004024080B500AFFFF762FFFFF78CFF16
:1008E000FFF7AAFF8021054800F036FD4FF40071A4
:1008F000024800F03FFD00BF80BD00BF0000024085
:1009000080B58AB000AF7860396000237B62002335
:100910003B620023FB610023BB617B681B8A9BB2A7
:100920007B627B6A23F440537B623B68DB881A4618
:100930007B6A13437B627B6A9AB27B681A827B680C
:100940009B899BB27B627B6A23F4B05323F00C0338
:100950007B623B689A883B681B8913439AB23B6869
:100960005B8913439BB21A467B6A13437B627B6AA3
:100970009AB27B689A817B689B8A9BB27B627B6A16
:1009800023F440737B623B689B891A467B6A13435E
:100990007B627B6A9AB27B689A8207F108031846E9
:1009A00000F0B4F97B68314A934203D07B68304A47
:1009B000934202D17B693B6201E03B693B627B6809
:1009C0009B899BB29BB21BB2002B0CDA3A6A13468E
:1009D0009B0013449A001A443B681B685B00B2FBFF
:1009E000F3F3FB610BE03A6A13469B0013449A0051
:1009F0001A443B681B689B00B2FBF3F3FB61FB6985
:100A00001C4AA2FB03235B091B017B627B6A1B0957
:100A1000642202FB03F3FA69D31ABB617B689B89EA
:100A20009BB29BB21BB2002B0CDABB69DB003233EA
:100A3000104AA2FB03235B0903F007037A6A1343FE
:100A40007B620BE0BB691B0132330A4AA2FB032322
:100A50005B0903F00F037A6A13437B627B6A9AB2E5
:100A60007B681A8100BF2837BD4680BD0010014059
:100A7000001401401F85EB5180B483B000AF786053
:100A80000B46FB70FB78002B08D07B689B899BB2E0
:100A900043F400539AB27B689A8107E07B689B8994
:100AA0009BB223F400539AB27B689A8100BF0C3743
:100AB000BD4680BC704700BF80B483B000AF786093
:100AC0000B467B807B88C3F308039AB27B689A80CD
:100AD00000BF0C37BD4680BC704700BF80B483B0F8
:100AE00000AF78607B689B889BB2C3F308039BB21E
:100AF00018460C37BD4680BC704700BF80B487B035
:100B000000AF78600B467B8013467B7000233B610F
:100B10000023FB600023BB6000237B617B687B615B
:100B20007B88DBB25B09DBB23B617B8803F01F0390
:100B3000FB600122FB6802FA03F3BB603B69012BF7
:100B400003D17B690C337B6109E03B69022B03D144
:100B50007B6910337B6102E07B6914337B617B78B6
:100B6000002B06D07B697A691168BA680A431A605B
:100B700006E07B697A691168BA68D2430A401A6054
:100B800000BF1C37BD4680BC704700BF80B485B035
:100B900000AF78600B467B800023FB737B681B886B
:100BA0009AB27B8813409BB2002B02D00123FB73C7
:100BB00001E00023FB73FB7B18461437BD4680BC65
:100BC000704700BF80B487B000AF78600B467B8071
:100BD0000023FB6000237B610023BB600023FB74C8
:100BE0007B88DBB25B09DBB2BB607B8803F01F0351
:100BF0007B6101227B6902FA03F37B61BB68012BF5
:100C000007D17B689B899BB21A467B6913407B6145
:100C100011E0BB68022B07D17B681B8A9BB21A4686
:100C20007B6913407B6106E07B689B8A9BB21A4616
:100C30007B6913407B617B881B0A9BB2FB600122AE
:100C4000FB6802FA03F3FB607B681B889BB21A46C1
:100C5000FB681340FB607B69002B05D0FB68002B11
:100C600002D00123FB7401E00023FB74FB7C1846D7
:100C70001C37BD4680BC704780B582B000AF104BBA
:100C80007B60104B3B6007E03B681A1D3A607A6856
:100C9000111D796012681A603B680B4A9342F3D3C6
:100CA0000A480B494FF000028842B8BF40F8042BB5
:100CB000FADB00F013F800BF0837BD4680BD00BF67
:100CC0006B230008000000203000002030000020CE
:100CD0009400002080B400AFFEE700BF80B500AFF5
:100CE00000F09EFB0121012000F0BAF80121022052
:100CF00000F0B6F800F07AFAFFF7D0FC00F038FC0C
:100D0000FFF7E8FDFFF73EFCFCE700BF80B489B0C9
:100D100000AF78600023BB6100237B610023FB618F
:100D200002233B610023FB600223BB60484B9B68AE
:100D300003F00C03BB61BB69042B07D0082B09D05F
:100D4000002B3FD17B68434A1A603FE07B68424AF0
:100D50001A603BE03E4B5B6803F480039B0DFB6035
:100D60003B4B5B6803F03F03BB60FB68002B0DD07F
:100D7000394ABB68B2FBF3F2354B596847F6C0738A
:100D80000B409B0903FB02F3FB610CE0314ABB689B
:100D9000B2FBF3F22E4B596847F6C0730B409B0928
:100DA00003FB02F3FB612A4B5B6803F440331B0C2B
:100DB00001335B003B61FA693B69B2FBF3F27B688C
:100DC0001A6003E07B68234A1A6000BF204B9B68CF
:100DD00003F0F003BB61BB691B09BB611F4ABB6920
:100DE00013441B78DBB27B617B681A687B69DA404D
:100DF0007B685A60164B9B6803F4E053BB61BB6988
:100E00009B0ABB61154ABB6913441B78DBB27B614B
:100E10007B685A687B69DA407B689A600C4B9B68F8
:100E200003F46043BB61BB695B0BBB610B4ABB69ED
:100E300013441B78DBB27B617B685A687B69DA40BC
:100E40007B68DA6000BF2437BD4680BC704700BFB6
:100E5000003802400024F40000127A000C00002048
:100E600080B483B000AF78600B46FB70FB78002B3A
:100E700006D00949084B1A6B7B6813430B6306E0E5
:100E80000549054B1A6B7B68DB4313400B6300BFBE
:100E90000C37BD4680BC70470038024080B483B038
:100EA00000AF78600B46FB70FB78002B06D0094939
:100EB000084B1A6C7B6813430B6406E00549054B2D
:100EC0001A6C7B68DB4313400B6400BF0C37BD46D4
:100ED00080BC70470038024080B485B000AF7860B5
:100EE0000F4B1A687B6802FB03F3FB600D4B1B681A
:100EF0000D4A934204D00B4B1B680C4A934204D119
:100F0000074B1B68FA68D31AFB6000BFFB685A1EC8
:100F1000FA60002BFAD100BF1437BD4680BC704781
:100F20007C0000201C0000200095BA0A00E1F505B5
:100F300080B586B002AFF860B9603B601346FB80B5
:100F400000F054F9FB68BA685A60FB68FA881A81A5
:100F5000FB683A68DA60FB683A8B1A82FB68D868EB
:100F6000FB68198A012301930223009300230122C5
:100F700000F02EFCFB685868FB6819890123019377
:100F8000022300930023002200F022FCFB68DB68B0
:100F9000FA68128A5A83F86800F010F803464FF096
:100FA0000001184601F0C8F90346002B01D00123C7
:100FB00000E0002318461037BD4680BD80B584B0E0
:100FC00000AF78607B68DB687A68128A5A830220F7
:100FD000FFF782FF7B68DB687A68128A1A830A202F
:100FE000FFF77AFF7B68DB687A68128A5A831A4BAC
:100FF000BB6006E0BB685A1EBA60002B01D1174BDC
:1010000026E07B685B681B697A6812891340002BB5
:10101000F0D00023FB6005E0FB680133FB6001209A
:10102000FFF75AFF7B685B681B697A681289134077
:10103000002BF1D1F86800F075FF03460849184607
:1010400000F0C8FF03461A467B681A607B681B687D
:1010500018461037BD4680BD40420F00000080BFDB
:101060007AC18C3C80B483B000AF03463960FB7119
:1010700097F90730002B0BDA0D49FB7903F00F03CA
:10108000043B3A68D2B21201D2B20B441A7609E09C
:10109000084997F907303A68D2B21201D2B20B442C
:1010A00083F8002300BF0C37BD4680BC704700BFEB
:1010B00000ED00E000E100E080B582B000AF7860B4
:1010C0007B68B3F1807F01D3012311E00A4A7B687A
:1010D00023F07F43013B53600F214FF0FF30FFF7B8
:1010E000C1FF054B00229A60034B07221A600023C0
:1010F00018460837BD4680BD10E000E080B582B0DC
:1011000000AF374B1B680133354A1360354B1B6802
:10111000002B04D0334B1B68013B324A1360AFF302
:1011200000800023FB7152E0FB792F4A9B0013449F
:101130005B68002B48D0FB792B4A9B0013445B680B
:101140001B7B002B40D0FB79274A9B0013445B6834
:101150009B68002B38D0FB79234A9B0013445B68C3
:101160009A68013A9A60FB791F4A9B0013445B68B6
:101170009B68002B28D1FB791B4A9B0013445B68BA
:101180001A69FB7918499B000B445B685B69184638
:101190009047FB79144A9B0013445A68FB79124923
:1011A0009B000B445B681B689360FB790E4A9B00B5
:1011B00013445B685B68002B06D1FB790A4A9B00ED
:1011C00013445B6800221A73FB790133FB71064BF1
:1011D0001B78FA799A42A7D300BF0837BD4680BD75
:1011E00040000020440000204C00002080B500AFEB
:1011F0000D4B1B680D4AA2FB03239B091846FFF702
:101200005BFF0346002B00D0FEE7074B1B689B09E2
:10121000074AA2FB03239B0A064A1360064B0122DE
:101220001A7000BF80BD00BF1C000020D34D6210AB
:10123000179165027C0000204800002080B487B030
:1012400000AF7860396000237B6100233B6100239D
:10125000FB6000237B6176E001227B6902FA03F3E5
:101260003B613B681A683B691340FB60FA683B6965
:101270009A4265D17B681A687B695B00032101FA99
:1012800003F3DB431A407B681A607B681A683B688B
:101290001B7919467B695B0001FA03F31A437B68EB
:1012A0001A603B681B79012B03D03B681B79022B2A
:1012B0002ED17B689A687B695B00032101FA03F3F6
:1012C000DB431A407B689A607B689A683B685B796D
:1012D00019467B695B0001FA03F31A437B689A6045
:1012E0007B685A687B699BB2012101FA03F3DB43F7
:1012F0001A407B685A607B685A683B689B7919463C
:101300007B699BB201FA03F39BB21A437B685A6074
:101310007B68DA687B699BB25B00032101FA03F307
:10132000DB431A407B68DA607B68DA683B68DB790C
:1013300019467B695B0001FA03F31A437B68DA60A4
:101340007B6901337B617B690F2B85D900BF1C371B
:10135000BD4680BC704700BF80B483B000AF7860EA
:101360000B467B807B687A881A8300BF0C37BD46AA
:1013700080BC704780B483B000AF78600B467B8040
:101380007B687A885A8300BF0C37BD4680BC7047A3
:1013900080B485B000AF78600B467B8013467B70CD
:1013A0000023FB600023BB607A787B8803F007038F
:1013B0009B0002FA03F3FB607B88DB089BB21846B4
:1013C0007B88DB089BB21A467B68083253F82220E0
:1013D0007B8803F007039B000F2101FA03F3DB4333
:1013E00002EA03017B6800F1080243F822107B88BF
:1013F000DB089BB21A467B68083253F82220FB6850
:101400001343BB607B88DB089BB21A467B680832BB
:10141000B96843F8221000BF1437BD4680BC70473E
:1014200080B500AF124A124B1B6843F001031360F2
:101430000F4B00229A600E4A0D4B1B6823F08473F9
:1014400023F4803313600A4B0A4A5A60084A084B57
:101450001B6823F480231360054B0022DA6000F040
:101460000DF8054B4FF000629A6000BF80BD00BFD1
:10147000003802401030002400ED00E080B483B05A
:1014800000AF00237B6000233B60354A344B1B6870
:1014900043F480331360324B1B6803F400333B602A
:1014A0007B6801337B603B68002B03D17B68B3F51D
:1014B000A06FF0D12A4B1B6803F40033002B02D03D
:1014C00001233B6001E000233B603B68012B42D1DC
:1014D000234A234B1B6C43F080531364214A214B56
:1014E0001B6843F4804313601D4A1D4B9B68936047
:1014F0001B4A1B4B9B6843F400439360184A184BEC
:101500009B6843F4A0539360154B174A5A60144AE2
:10151000134B1B6843F08073136000BF104B1B68B4
:1015200003F00073002BF9D0104B40F205621A60F3
:101530000B4A0B4B9B6823F003039360084A084B4C
:101540009B6843F00203936000BF054B9B6803F068
:101550000C03082BF9D100BF0C37BD4680BC704787
:10156000003802400070004008544007003C024030
:1015700080B582B002AF01210820FFF771FC00F0B6
:101580009BF800F013F800F031F802230093044BAD
:10159000012204490448FFF7CBFC00BFBD4680BDD3
:1015A00000080240000C02408000002080B584B09A
:1015B00000AF01210220FFF771FC42F2CF03BB60B4
:1015C00042F20F73BB800023BB810023FB803B1DD5
:1015D0001946054800F0D0F90121034800F036FA19
:1015E00000BF1037BD4680BD0004004080B582B00A
:1015F00000AF1D233B7101237B710123BB710123CC
:10160000FB714FF4A06000F071F83B1D184600F02C
:101610007FF80121054800F0BFFB012201210348AA
:1016200000F06CFB00BF0837BD4680BD00040040E1
:1016300080B500AF4FF470411B48FFF79BFE0121BE
:101640001A4800F07FFB0346002B2AD01848FFF70A
:10165000B5FC174B1B684FF00001184600F058FE10
:101660000346002B05D04FF480410F48FFF774FE6E
:1016700013E00F4B1B680F49184600F067FE034646
:10168000002B05D04FF400510748FFF765FE04E03A
:101690004FF400410448FFF75FFE0121034800F0CA
:1016A0007BFB00BF80BD00BF000C02400004004077
:1016B000800000200000484280B582B000AF4FF4A7
:1016C00070433B6001233B710023BB7103237B719B
:1016D0000023FB713B4619460348FFF7AFFD00BFEF
:1016E0000837BD4680BD00BF000C024080B483B007
:1016F00000AF7860054A7B6843F0BF6343F4003372
:10170000D36000BF0C37BD4680BC704700ED00E0E1
:1017100080B485B000AF78600023FB730023BB73F7
:101720000F237B737B68DB78002B38D0264BDB687C
:10173000DB4303F4E0631B0AFB73FB7BC3F104038D
:10174000BB737A7BFB7B42FA03F37B737B685B782A
:101750001A46BB7B02FA03F3FB737B689A787B7BA8
:101760001340DAB2FB7B1343FB73FB7B1B01FB7360
:10177000164A7B681B781344FA7B83F80023134ACC
:101780007B681B785B09DBB218467B681B7803F02B
:101790001F03012101FA03F342F820300FE00B4947
:1017A0007B681B785B09DBB218467B681B7803F00B
:1017B0001F0301229A4000F1200341F8232000BFBB
:1017C0001437BD4680BC704700ED00E000E100E04A
:1017D00080B584B002AF7860084611461A460346C9
:1017E0007B800B467B7013463B707B88002B0ED0B2
:1017F000786800F021F838787A7879883B7D019311
:101800003B7C00930346786800F02EF800E000BFB0
:101810000837BD4680BD00BF80B483B000AF78609C
:101820007B6803F13F4303F57E039B0A9BB2184696
:101830000C37BD4680BC704780B582B000AF786081
:101840007868FFF7E9FF03461A46012303FA02F11D
:10185000044A044B1B6B0B43136300BF0837BD46A0
:1018600080BD00BF0038024080B584B000AF786012
:10187000084611461A4603467B800B467B7013468A
:101880003B707868FFF7C8FF0346BB730023FB7308
:1018900068E07A88FB7B42FA03F303F00103002B34
:1018A0005CD0BB7BBA7B334931F8122090B2FA7B13
:1018B000012101FA02F292B201460A4392B291B2B8
:1018C0002C4A22F813107B68DB68FA7B5200032154
:1018D00001FA02F2D2431340397EFA7B520001FA38
:1018E00002F21A437B68DA607B681A68FB7B5B0054
:1018F000032101FA03F3DB4313407978FA7B5200AA
:1019000001FA02F21A437B681A607B78012B02D03D
:101910007B78022B23D17B685B68FA7B012101FA7B
:1019200002F292B2D2431A403978FB7B01FA03F3F8
:101930009BB21A437B685A607B689A68FB7B5B00AA
:10194000032101FA03F3DB431340397FFA7B520092
:1019500001FA02F21A437B689A6000E000BFFB7B49
:101960000133FB73FB7B0F2B93D900BF1037BD46B0
:1019700080BD00BF6400002080B485B000AF7860F7
:1019800039600023FB817B681B88FB817B68284AC8
:10199000934213D07B68274A93420FD07B68B3F100
:1019A000804F0BD07B68244A934207D07B68234A40
:1019B000934203D07B68224A934208D1FB8923F0EB
:1019C0007003FB813B685A88FB891343FB817B686A
:1019D0001C4A93420CD07B681B4A934208D0FB8977
:1019E00023F44073FB813B681A89FB891343FB8115
:1019F0007B68FA891A803B685A687B68DA623B68C0
:101A00001A887B681A857B68094A934203D07B68F1
:101A1000084A934204D13B689B7A9AB27B681A8643
:101A20007B6801229A8200BF1437BD4680BC704794
:101A30000000014000040140000400400008004094
:101A4000000C0040001000400014004080B483B03F
:101A500000AF78600B46FB70FB78002B08D07B68EA
:101A60001B889BB243F001039AB27B681A8007E09F
:101A70007B681B889BB223F001039AB27B681A80B3
:101A800000BF0C37BD4680BC704700BF80B485B036
:101A900000AF7860396000237B810023FB81002345
:101AA000BB817B681B8C9BB223F001039AB27B68DD
:101AB0001A847B681B8CFB817B689B88BB817B685D
:101AC0001B8B7B817B8923F070037B817B8923F0D7
:101AD00003037B813B681A887B8913437B81FB89E5
:101AE00023F00203FB813B689A89FB891343FB8146
:101AF0003B685A88FB891343FB817B681E4A9342EB
:101B000003D07B681D4A934223D1FB8923F008034D
:101B1000FB813B68DA89FB891343FB81FB8923F056
:101B20000403FB813B689A88FB891343FB81BB89D3
:101B300023F48073BB81BB8923F40073BB813B68B2
:101B40001A8ABB891343BB813B685A8ABB891343FA
:101B5000BB817B68BA899A807B687A891A833B68E3
:101B60009A687B685A637B68FA891A8400BF1437C5
:101B7000BD4680BC704700BF00000140000401402A
:101B800080B485B000AF7860396000237B8100238A
:101B9000FB810023BB817B681B8C9BB223F4807389
:101BA0009AB27B681A847B681B8CFB817B689B885C
:101BB000BB817B689B8B7B817B8923F070037B815E
:101BC0007B8923F003037B813B681A887B8913435D
:101BD0007B81FB8923F40073FB813B689B891B029B
:101BE0009AB2FB891343FB813B685B881B029AB264
:101BF000FB891343FB817B68224A934203D07B68B5
:101C0000214A93422BD1FB8923F40063FB813B687B
:101C1000DB891B029AB2FB891343FB81FB8923F406
:101C20008063FB813B689B881B029AB2FB8913434C
:101C3000FB81BB8923F48053BB81BB8923F4005310
:101C4000BB813B681B8A1B019AB2BB891343BB81D2
:101C50003B685B8A1B019AB2BB891343BB817B68DB
:101C6000BA899A807B687A899A833B689A687B688C
:101C7000DA637B68FA891A8400BF1437BD4680BCDA
:101C8000704700BF000001400004014080B485B0EF
:101C900000AF78600B467B800023FB817B681B8B49
:101CA000FB81FB8923F00803FB81FA897B881343BE
:101CB000FB817B68FA891A8300BF1437BD4680BC5C
:101CC000704700BF80B485B000AF78600B467B8062
:101CD0000023FB817B689B8BFB81FB8923F008033E
:101CE000FB81FA897B881343FB817B68FA899A839D
:101CF00000BF1437BD4680BC704700BF80B483B0BE
:101D000000AF78600B467B8013467B707B78002B9E
:101D100008D07B689B899AB27B8813439AB27B6810
:101D20009A8109E07B689B899AB27B88DB439BB2EE
:101D300013409AB27B689A8100BF0C37BD4680BCC5
:101D4000704700BF80B485B000AF78600B467B80E1
:101D50000023FB730023BB8100237B817B681B8AEC
:101D60009AB27B881340BB817B689B899AB27B883F
:101D700013407B81BB89002B05D07B89002B02D0CF
:101D80000123FB7301E00023FB73FB7B1846143730
:101D9000BD4680BC704700BF80B483B000AF7860A0
:101DA0000B467B807B88DB439AB27B681A8200BF3C
:101DB0000C37BD4680BC704780F0004002E000BF99
:101DC00081F0004142001FBF5FEA410392EA030F26
:101DD0007FEA226C7FEA236C6AD04FEA1262D2EB70
:101DE0001363C1BFD218414048404140B8BF5B4275
:101DF000192B88BF704710F0004F40F4000020F00E
:101E00007F4018BF404211F0004F41F4000121F023
:101E10007F4118BF494292EA030F3FD0A2F101026D
:101E200041FA03FC10EB0C00C3F1200301FA03F1AB
:101E300000F0004302D5494260EB4000B0F5000FCE
:101E400013D3B0F1807F06D340084FEA310102F18D
:101E50000102FE2A51D2B1F1004F40EBC25008BF3F
:101E600020F0010040EA03007047490040EB000009
:101E700010F4000FA2F10102EDD1B0FA80FCACF138
:101E8000080CB2EB0C0200FA0CF0AABF00EBC25037
:101E900052421843BCBFD0401843704792F0000F25
:101EA00081F4000106BF80F400000132013BB5E778
:101EB0004FEA41037FEA226C18BF7FEA236C21D0EE
:101EC00092EA030F04D092F0000F08BF0846704753
:101ED00090EA010F1CBF0020704712F07F4F04D121
:101EE000400028BF40F00040704712F100723CBF34
:101EF00000F50000704700F0004343F0FE4040F45E
:101F0000000070477FEA226216BF08467FEA23631B
:101F10000146420206BF5FEA412390EA010F40F406
:101F2000800070474FF0000304E000BF10F0004352
:101F300048BF40425FEA000C08BF704743F0964339
:101F400001464FF000001CE050EA010208BF704754
:101F50004FF000030AE000BF50EA010208BF7047DB
:101F600011F0004302D5404261EB41015FEA010CF0
:101F700002BF84460146002043F0B64308BFA3F1E8
:101F80008053A3F50003BCFA8CF2083AA3EBC253CA
:101F900010DB01FA02FC634400FA02FCC2F12002E9
:101FA000BCF1004F20FA02F243EB020008BF20F020
:101FB0000100704702F1200201FA02FCC2F1200286
:101FC00050EA4C0021FA02F243EB020008BF20EA7B
:101FD000DC7070474FF0FF0C1CEAD0521EBF1CEAA9
:101FE000D15392EA0C0F93EA0C0F6FD01A4480EA97
:101FF000010C400218BF5FEA41211ED04FF0006380
:1020000043EA501043EA5111A0FB01310CF00040AB
:10201000B1F5000F3EBF490041EAD3715B0040EAD1
:10202000010062F17F02FD2A1DD8B3F1004F40EBA1
:10203000C25008BF20F00100704790F0000F0CF074
:10204000004C08BF49024CEA502040EA51207F3A38
:10205000C2BFD2F1FF0340EAC250704740F4000013
:102060004FF00003013A5DDC12F1190FDCBF00F004
:1020700000407047C2F10002410021FA02F1C2F1B2
:10208000200200FA02FC5FEA310040F1000053EA4E
:102090004C0308BF20EADC70704792F0000F00F09C
:1020A000004C02BF400010F4000F013AF9D040EAA2
:1020B0000C0093F0000F01F0004C02BF490011F436
:1020C000000F013BF9D041EA0C018FE70CEAD15334
:1020D00092EA0C0F18BF93EA0C0F0AD030F0004CB4
:1020E00018BF31F0004CD8D180EA010000F0004068
:1020F000704790F0000F17BF90F0004F084691F026
:10210000000F91F0004F14D092EA0C0F01D142025F
:102110000FD193EA0C0F03D14B0218BF084608D128
:1021200080EA010000F0004040F0FE4040F4000072
:10213000704740F0FE4040F4400070474FF0FF0C05
:102140001CEAD0521EBF1CEAD15392EA0C0F93EA4C
:102150000C0F69D0A2EB030280EA010C49024FEA9E
:10216000402037D04FF0805343EA111143EA101357
:102170000CF000408B4238BF5B0042F17D024FF40F
:10218000000C8B4224BF5B1A40EA0C00B3EB510FEA
:1021900024BFA3EB510340EA5C00B3EB910F24BFD3
:1021A000A3EB910340EA9C00B3EBD10F24BFA3EB58
:1021B000D10340EADC001B0118BF5FEA1C1CE0D120
:1021C000FD2A3FF650AF8B4240EBC25008BF20F0D3
:1021D000010070470CF0004C4CEA50207F32C2BF27
:1021E000D2F1FF0340EAC250704740F400004FF0C4
:1021F0000003013A37E792F0000F00F0004C02BFF5
:10220000400010F4000F013AF9D040EA0C0093F0BE
:10221000000F01F0004C02BF490011F4000F013B18
:10222000F9D041EA0C0195E70CEAD15392EA0C0F80
:1022300008D142027FF47DAF93EA0C0F7FF470AFB8
:10224000084676E793EA0C0F04D14B023FF44CAFFB
:1022500008466EE730F0004C18BF31F0004CCAD190
:1022600030F000427FF45CAF31F000437FF43CAFCC
:102270005FE700BF4FF0FF3C06E000BF4FF0010CEE
:1022800002E000BF4FF0010C4DF804CD4FEA4002D0
:102290004FEA41037FEA226C18BF7FEA236C11D01A
:1022A00001B052EA530C18BF90EA010F58BFB2EBCD
:1022B000030088BFC81738BF6FEAE17018BF40F04D
:1022C000010070477FEA226C02D15FEA402C05D101
:1022D0007FEA236CE4D15FEA412CE1D05DF8040B86
:1022E000704700BF844608466146FFE70FB5FFF719
:1022F000C9FF002848BF10F1000F0FBD4DF808EDD1
:10230000FFF7F4FF0CBF012000205DF808FB00BFC1
:102310004DF808EDFFF7EAFF34BF012000205DF81B
:1023200008FB00BF4DF808EDFFF7E0FF94BF012068
:1023300000205DF808FB00BF4DF808EDFFF7D2FF65
:1023400094BF012000205DF808FB00BF4DF808EDA8
:10235000FFF7C8FF34BF012000205DF808FB00BF75
:0B2360000100000052454144590A00F2
:10236B004500E2040807E204BC0260EA000000003A
:10237B00010203040102030406070809007A030A99
:10238B00000000000000000001020304060708091A
:0400000508000000EF
:00000001FF
